:1000000026C1000055C1000053C1000051C10000CD
:100010004FC100004DC100004BC1000049C10000AC
:1000200047C1000045C1000043C1000041C10000BC
:100030003FC100003DC100003BC1000039C10000CC
:1000400037C1000035C1000033C1000031C10000DC
:100050002FC100002DC100002BC100002CC40000E6
:1000600027C100000C948F080C94C50821C1000022
:100070001FC100001DC100001BC1000019C100000C
:1000800017C1000015C1000013C1000011C100001C
:100090000FC100000DC100000BC1000009C100002C
:1000A00007C1000005C1000003C1000001C100003C
:1000B000FFC00000FDC00000FBC00000F9C0000050
:1000C000F7C00000F5C00000F3C00000F1C0000060
:1000D000EFC00000EDC00000EBC00000E9C0000070
:1000E000E7C0000097059C05A105AB05B5052E06E8
:1000F000BF05C705CF05D905E305ED05FC050606D7
:100100002E0610061A0624064F065206410645061C
:100110004B06890656065A066006640668066E0691
:100120007206760689067C068006840600000A0BA5
:1001300002090C0D0E080703040100000000000076
:1001400000000000000000000000000000000000AF
:10015000000000000000000012111000000000006C
:10016000000000000000000000000000000000008F
:1001700000000102102020080810204010204080BC
:10018000020102010804020101020408102040805B
:1001900080402010080402018004020180402010E9
:1001A0000804020108040201010204081020408032
:1001B0000102040810204080050505050705080810
:1001C0000808020202020A0A0808040404040101E1
:1001D00001010101010103030303030303030407F6
:1001E00007070C0C0C0C0C0C0C0C0202020206068D
:1001F0000606060606060B0B0B0B0B0B0B0B000083
:1002000020002300260029002C002F0032000001CE
:10021000000003010601090100002200250028005A
:100220002B002E00310034000201000005010801FE
:100230000B0100002100240027002A002D003000BF
:10024000330001010000040107010A01F70811242D
:100250001FBECFEFD1E2DEBFCDBF00E00CBF12E08A
:10026000A0E0B2E0E6EBF7E100E00BBF02C00790D0
:100270000D92A833B107D9F723E0A8E3B2E001C09B
:100280001D92AC30B207E1F712E0CEE4D2E000E01C
:1002900006C022970109FE010BBF0E94C10BCC349E
:1002A000D10780E00807A9F70E9463090C94D90BD5
:1002B000A7CE26E040E855E260E070E08FE692E0ED
:1002C000CED661E08091240225D561E080912202A2
:1002D00021D561E0809120021DD561E080911E0250
:1002E00019D561E080911C0215D561E080911A0258
:1002F00011D560E0809118020DD560E08091160262
:1003000009D560E08091140205D560E08091120269
:1003100001D560E080911002FDD460E080910E0272
:10032000F9D460E080910C02F5C48091180260D588
:1003300090934B0280934A028091160259D5909374
:100340004D0280934C028091140252D590934F023B
:1003500080934E02809112024BD59093510280936C
:1003600050028091100244D5909353028093520220
:1003700080910E023DD59093550280935402809156
:100380000C0236D5909357028093560280910A0250
:100390002FD5909359028093580260914802709132
:1003A00049024091460250914702EAE4F2E020E01F
:1003B00030E0A191B191A130B10511F46F5F7F4F91
:1003C000A29FC001A39F900DB29F900D1124840F96
:1003D000951F2F5F3F4F2830310511F0AC01E9CF59
:1003E0000E94860B7093450260934402109249026A
:1003F000109248021092470210924602882777FD19
:100400008095982F0E94730A20E030E040E450E489
:1004100066D70E94400A7093410260934002709335
:100420003F0260933E0240913C0250913D02460FD4
:10043000571F50933D0240933C02E0910602F09119
:100440000702E69F9001E79F300DF69F300D1124C3
:100450006091420270914302469FC001479F900DF8
:10046000569F900D1124280F391F2F3F310509F099
:100470002CF430933B0220933A0206C08FEF90E0B9
:1004800090933B0280933A0260913A0270913B0252
:10049000882777FD8095982F0E94730A20E030E02E
:1004A0004FE753EC81D787FF06C081E09FEF909321
:1004B0003B0280933A0220913A0230913B0237FF8F
:1004C00029C086E990E0AC01421B530B50935D02BA
:1004D00040935C0290935B0280935A0266E970E05D
:1004E00080911E0201D360915C0270915D02809147
:1004F0002402FAD261E080911C0245D460E0809130
:100500001A0241D461E0809122023DD460E08091E2
:10051000200239D420913A0230913B021216130680
:100520004CF586E990E0AC01421B530B50935D0201
:1005300040935C0290935B0280935A0266E970E0FC
:1005400080911E02D1D260915C0270915D02809117
:100550002402CAD261E080911C0215D460E080912F
:100560001A0211D461E0809122020DD460E08091E2
:10057000200209D480913A0290913B02892B31F5F7
:1005800086E990E090935D0280935C0290935B0219
:1005900080935A0266E970E080911E02A5D26091B4
:1005A0005C0270915D02809124029ED261E0809194
:1005B0001C02E9D360E080911A02E5D361E08091EA
:1005C0002202E1D360E080912002DDC30895809192
:1005D0000C020ED4019779F480913802909139027F
:1005E000019690933902809338029FDE68EC70E0A8
:1005F00080E090E0CDD18091380290913902089549
:100600004F925F926F927F928F929F92AF92BF9222
:10061000CF92DF92EF92FF928091080240D2BC010C
:10062000882777FD8095982F5ED720E030EC4FE744
:1006300054E4BED620E030E040EA50E40E94230BB0
:100640001FD76B017C018BEA93E08C9DB0018D9DDF
:10065000700D9C9D700D1124882777FD8095982F33
:1006600042D74B015C012DEFA6012403B001259F69
:10067000700D1124882777FD8095982F34D720E0BE
:1006800030E040E85FE32CD62B013C01CC9CC0015C
:10069000CD9C900D900D112421E1289FB001299F40
:1006A000700D1124882777FD8095982F1CD79B010A
:1006B000AC01C301B20114D69B01AC01C501B40168
:1006C00077D6DED6CB01FF90EF90DF90CF90BF9032
:1006D000AF909F908F907F906F905F904F90089514
:1006E00061E0809122024FD360E0809120024BD3E1
:1006F00068E770E080912402F7D161E080911C02EC
:1007000042D360E080911A023ED368E770E08091A6
:100710001E02EAC160E070E080912402E5D160E051
:1007200070E080911E02E0C161E0809122022BD333
:1007300060E08091200227D368E770E08091240276
:10074000D3D160E080911C021ED361E080911A0237
:100750001AD368E770E080911E02C6C160E0809104
:10076000220211D361E0809120020DD368E770E08E
:1007700080912402B9D161E080911C0204D360E031
:1007800080911A0200D368E770E080911E02ACC12C
:10079000A7DF68EC70E080E090E0FAD0809138024A
:1007A0009091390202973CF4C0DD11DF9093390239
:1007B00080933802F3CFAEDF68EE73E080E090E024
:1007C000E7D08091120214D3909363028093620267
:1007D000809110020DD3909361028093600280910A
:1007E000640290916502892B41F48091600290919E
:1007F0006102892B11F498DFE4CF8CDF68EE73E09F
:1008000080E090E0C5D08091380290913902059740
:100810003CF48BDDDCDE9093390280933802F3CF19
:1008200079DF68EE73E080E090E0B2D08091120250
:10083000DFD2909363028093620280911002D8D23B
:1008400090936102809360028091640290916502AE
:10085000019779F48091600290916102019749F4C7
:100860007DDFE4CF8091600290916102892BA9F431
:1008700075DF80911202BCD2909363028093620272
:1008800080911002B5D290936102809360028091B2
:10089000640290916502892B29F3B2DE90935F0286
:1008A00080935E0280915E0290915F02C29714F481
:1008B0003CDDF3CF2FCF1F920F920FB60F92112472
:1008C0002F933F938F939F93AF93BF938091670232
:1008D00090916802A0916902B0916A02309166021B
:1008E00023E0230F2D3720F40196A11DB11D05C073
:1008F00026E8230F0296A11DB11D20936602809366
:10090000670290936802A0936902B0936A02809193
:100910006B0290916C02A0916D02B0916E020196F3
:10092000A11DB11D80936B0290936C02A0936D0288
:10093000B0936E02BF91AF919F918F913F912F9194
:100940000F900FBE0F901F9018953FB7F8948091AD
:100950006B0290916C02A0916D02B0916E0226B56F
:10096000A89B05C02F3F19F00196A11DB11D3FBFE7
:100970006627782F892F9A2F620F711D811D911D77
:1009800042E0660F771F881F991F4A95D1F7089597
:10099000CF92DF92EF92FF92CF93DF936B017C01B6
:1009A000D4DFEB01C114D104E104F10479F096D451
:1009B000CCDF6C1B7D0B683E7340A0F381E0C81A4E
:1009C000D108E108F108C851DC4FECCFDF91CF919D
:1009D000FF90EF90DF90CF900895789484B5826077
:1009E00084BD84B5816084BD85B5826085BD85B5D3
:1009F000816085BDEEE6F0E0808181608083E1E882
:100A0000F0E01082808182608083808181608083B9
:100A1000E0E8F0E0808181608083E1EBF0E08081BC
:100A200084608083E0EBF0E0808181608083E1E995
:100A3000F0E0808182608083808181608083E0E952
:100A4000F0E0808181608083E1EAF0E08081826073
:100A50008083808181608083E0EAF0E08081816032
:100A60008083E1E2F1E08081826080838081816027
:100A70008083E0E2F1E0808181608083EAE7F0E05A
:100A800080818460808380818260808380818160B6
:100A900080838081806880831092C10008958633AE
:100AA00008F0865320917B00982F9870277F922B17
:100AB00090937B0087702091260290E4299F9001FB
:100AC0001124822B80937C0080917A008064809333
:100AD0007A0080917A0086FDFCCF80917800209189
:100AE000790090E0922B08951F93CF93DF93182FF6
:100AF000EB0161E00FD1209711F460E004C0CF3F1B
:100B0000D10531F461E0812FDF91CF911F913BC17D
:100B1000E12FF0E0E45DFE4F449150E0FA0131979F
:100B2000E231F10508F09AC0EE58FF4F24C684B5B3
:100B3000806884BDC7BD97C084B5806284BDC8BDD0
:100B400092C080918000806880938000D09389005B
:100B5000C093880088C0809180008062809380006C
:100B6000D0938B00C0938A007EC080918000886003
:100B700080938000D0938D00C0938C0074C08091CE
:100B8000B00080688093B000C093B3006CC08091C7
:100B9000B00080628093B000C093B40064C08091C4
:100BA0009000806880939000D0939900C093980043
:100BB0005AC080919000806280939000D0939B00F7
:100BC000C0939A0050C080919000886080939000FC
:100BD000D0939D00C0939C0046C08091A000806887
:100BE0008093A0008091A0008F7B8093A000D09381
:100BF000A900C093A80037C08091A00080628093B4
:100C0000A000D093AB00C093AA002DC08091A0009B
:100C100088608093A000D093AD00C093AC0023C047
:100C200080912001806880932001D0932901C09396
:100C3000280119C080912001806280932001D09307
:100C40002B01C0932A010FC08091200188608093FE
:100C50002001D0932D01C0932C0105C0C038D105CF
:100C60000CF050CF4ACFDF91CF911F91089590E0C3
:100C7000FC013197E231F10508F04BC0EC57FF4F12
:100C80007AC5809180008F7703C0809180008F7D2E
:100C900080938000089580918000877FF9CF84B58C
:100CA0008F7702C084B58F7D84BD08958091B00098
:100CB0008F7703C08091B0008F7D8093B00008953E
:100CC000809190008F7707C0809190008F7D03C046
:100CD00080919000877F8093900008958091A0007C
:100CE0008F7707C08091A0008F7D03C08091A00006
:100CF000877F8093A0000895809120018F7707C09F
:100D0000809120018F7D03C080912001877F809397
:100D100020010895CF93DF9390E0FC01EE58FE4F41
:100D20002491FC01E854FE4F8491882349F190E01E
:100D3000880F991FFC01EE5CFD4FA591B491885E70
:100D40009D4FFC01C591D4919FB7611108C0F894E3
:100D50008C91209582238C93888182230AC06230F3
:100D600051F4F8948C91322F309583238C938881A1
:100D7000822B888304C0F8948C91822B8C939FBF24
:100D8000DF91CF9108950F931F93CF93DF931F921D
:100D9000CDB7DEB7282F30E0F901E45DFE4F849136
:100DA000F901EE58FE4F1491F901E854FE4F0491F9
:100DB0000023C1F0882319F0698359DF6981E02F8E
:100DC000F0E0EE0FFF1FE85EFD4FA591B4919FB7D5
:100DD000F8948C91611103C01095812301C0812B7F
:100DE0008C939FBF0F90DF91CF911F910F9108952A
:100DF000CF93DF93282F30E0F901E45DFE4F84911B
:100E0000F901EE58FE4FD491F901E854FE4FC49118
:100E1000CC2389F081112BDFEC2FF0E0EE0FFF1FC8
:100E2000E250FE4FA591B4912C912D2381E090E0EA
:100E300021F480E002C080E090E0DF91CF9108953E
:100E4000FC01818D228D90E0805C9F4F821B910977
:100E50008F7399270895FC01918D828D981731F039
:100E6000828DE80FF11D858D90E008958FEF9FEF43
:100E70000895FC01918D828D981761F0828DDF01BC
:100E8000A80FB11D5D968C91928D9F5F9F73928F7D
:100E900090E008958FEF9FEF08958EEE98E0892BF4
:100EA00039F080E090E0892B19F098D1811125C0AC
:100EB00080E090E0892B41F080E090E0892B21F0E8
:100EC0000E94000081111CC080E090E0892B41F05D
:100ED00080E090E0892B21F00E940000811113C076
:100EE00080E090E0892BA1F080E090E0892B81F0F8
:100EF0000E94000081110AC008950E940000D8CF0E
:100F00000E940000E1CF0E940000EACF0C94000094
:100F10000895FC01848DDF01A80FB11DA35ABF4FB6
:100F20002C91848D90E001968F739927848FA689E8
:100F3000B7892C93A089B1898C9180648C93938D0F
:100F4000848D981306C00288F389E02D80818F7DFF
:100F500080830895CF93DF93EC01888D8823C1F0BF
:100F6000EA89FB89808185FD05C0A889B9898C91B2
:100F700086FD0EC00FB607FCF5CF808185FFF2CF4E
:100F8000A889B9898C9185FFEDCFCE01C2DFE8CF6A
:100F9000DF91CF910895CF92DF92FF920F931F932D
:100FA000CF93DF931F92CDB7DEB76C0181E0D601FE
:100FB00058968C9358975B969C915B975C968C9116
:100FC0005C97981307C05096ED91FC9151978081E2
:100FD00085FD2DC0F601038D10E00F5F1F4F0F73CD
:100FE0001127F02EF601848DF81210C00FB607FC01
:100FF000F9CFD6015096ED91FC915197808185FFF4
:10100000F1CFC601698385DF6981ECCF838DE80F5D
:10101000F11DE35AFF4F6083D6015B960C935B97FB
:101020005296ED91FC915397808180620CC0D6015D
:101030005696ED91FC91579760835096ED91FC91F7
:10104000519780818064808381E090E00F90DF91F0
:10105000CF911F910F91FF90DF90CF900895BF9295
:10106000CF92DF92EF92FF92CF93DF93EC016A0170
:101070007B01B22EE889F98982E08083411581EEF7
:1010800058076105710599F060E079E08DE390E023
:10109000A70196014ED321503109410951095695B6
:1010A000479537952795211580E1380790F0E88915
:1010B000F989108260E874E88EE190E0A70196015A
:1010C00038D3215031094109510956954795379533
:1010D0002795EC85FD853083EE85FF852083188E6E
:1010E000EC89FD89B082EA89FB89808180618083F7
:1010F000EA89FB89808188608083EA89FB89808115
:1011000080688083EA89FB8980818F7D8083DF917D
:10111000CF91FF90EF90DF90CF90BF9008951F92F6
:101120000F920FB60F9211240BB60F922F938F933D
:101130009F93EF93FF93E0917F02F0918002808173
:10114000E0918502F091860282FD12C0908180912B
:1011500088028F5F8F7320918902821751F0E0918E
:101160008802F0E0E159FD4F958F8093880201C01D
:101170008081FF91EF919F918F912F910F900BBEE6
:101180000F900FBE0F901F9018951F920F920FB6E1
:101190000F9211240BB60F922F933F934F935F93AF
:1011A0006F937F938F939F93AF93BF93EF93FF932F
:1011B0008FE692E0AEDEFF91EF91BF91AF919F91EC
:1011C0008F917F916F915F914F913F912F910F90F0
:1011D0000BBE0F900FBE0F901F9018958FE692E0F8
:1011E0002FDE21E0892B09F420E0822F0895109250
:1011F00072021092710288EE93E0A0E0B0E080935A
:10120000730290937402A0937502B09376028BE2FE
:1012100092E09093700280936F0285EC90E090933F
:101220007C0280937B0284EC90E090937E0280931A
:101230007D0280EC90E09093800280937F0281ECAD
:1012400090E0909382028093810282EC90E09093F0
:1012500084028093830286EC90E0909386028093D0
:101260008502109288021092890210928A021092CE
:101270008B020895CF92DF92EF92FF920F931F930C
:10128000CF93DF937C016A01EB0100E010E00C15C5
:101290001D0571F06991D701ED91FC910190F081EC
:1012A000E02DC7011995892B19F00F5F1F4FEFCF64
:1012B000C801DF91CF911F910F91FF90EF90DF90C8
:1012C000CF900895089589DBFDDF0E945901CDE498
:1012D000D7E05EDA2097E9F3E0DDFBCF08955058C0
:1012E000BB27AA270ED075C166D130F06BD120F094
:1012F00031F49F3F11F41EF45BC10EF4E095E7FB5F
:1013000051C1E92F77D180F3BA17620773078407B9
:10131000950718F071F49EF58FC10EF4E0950B2E31
:10132000BA2FA02D0B01B90190010C01CA01A00137
:101330001124FF27591B99F0593F50F4503E68F192
:101340001A16F040A22F232F342F4427585FF3CFD3
:10135000469537952795A795F0405395C9F77EF4A4
:101360001F16BA0B620B730B840BBAF09150A1F0ED
:10137000FF0FBB1F661F771F881FC2F70EC0BA0F73
:10138000621F731F841F48F4879577956795B795FB
:10139000F7959E3F08F0B3CF9395880F08F09927F3
:1013A000EE0F979587950895D9D008F481E00895B8
:1013B0000CD00FC107D140F0FED030F021F45F3FD8
:1013C00019F0F0C0511139C1F3C014D198F3992329
:1013D000C9F35523B1F3951B550BBB27AA276217F9
:1013E0007307840738F09F5F5F4F220F331F441F3E
:1013F000AA1FA9F333D00E2E3AF0E0E830D0915076
:101400005040E695001CCAF729D0FE2F27D0660F62
:10141000771F881FBB1F261737074807AB07B0E8A1
:1014200009F0BB0B802DBF01FF2793585F4F2AF0B7
:101430009E3F510568F0B6C000C15F3FECF3983E97
:10144000DCF3869577956795B795F7959F5FC9F714
:10145000880F911D9695879597F90895E1E0660F9D
:10146000771F881FBB1F621773078407BA0720F016
:10147000621B730B840BBA0BEE1F88F7E09508957F
:1014800004D06894B111D9C00895BCD088F09F579A
:1014900090F0B92F9927B751A0F0D1F0660F771FC0
:1014A000881F991F1AF0BA95C9F712C0B13081F0A0
:1014B000C3D0B1E00895C0C0672F782F8827B85FE8
:1014C00039F0B93FCCF3869577956795B395D9F701
:1014D0003EF490958095709561957F4F8F4F9F4F0B
:1014E0000895E89409C097FB3EF490958095709517
:1014F00061957F4F8F4F9F4F9923A9F0F92F96E960
:10150000BB279395F695879577956795B795F111D4
:10151000F8CFFAF4BB0F11F460FF1BC06F5F7F4F71
:101520008F4F9F4F16C0882311F096E911C0772383
:1015300021F09EE8872F762F05C0662371F096E88C
:10154000862F70E060E02AF09A95660F771F881F5B
:10155000DAF7880F9695879597F90895990F0008FF
:10156000550FAA0BE0E8FEEF16161706E807F90775
:10157000C0F012161306E407F50798F0621B730B10
:10158000840B950B39F40A2661F0232B242B252B91
:1015900021F408950A2609F4A140A6958FEF811D34
:1015A000811D089597F99F6780E870E060E00895D5
:1015B0009FEF80EC089500240A941616170618066B
:1015C0000906089500240A94121613061406050647
:1015D0000895092E0394000C11F4882352F0BB0FD8
:1015E00040F4BF2B11F460FF04C06F5F7F4F8F4F3B
:1015F0009F4F089557FD9058440F551F59F05F3F76
:1016000071F04795880F97FB991F61F09F3F79F024
:1016100087950895121613061406551FF2CF4695A6
:10162000F1DF08C0161617061806991FF1CF869528
:101630007105610508940895E894BB27662777270C
:10164000CB0197F908950BD0C4CFB5DF28F0BADFEE
:1016500018F0952309F0A6CFABCF1124EECFCADF47
:10166000A0F3959FD1F3950F50E0551F629FF001B5
:10167000729FBB27F00DB11D639FAA27F00DB11D0E
:10168000AA1F649F6627B00DA11D661F829F222797
:10169000B00DA11D621F739FB00DA11D621F839F1E
:1016A000A00D611D221F749F3327A00D611D231FF4
:1016B000849F600D211D822F762F6A2F11249F5742
:1016C00050408AF0E1F088234AF0EE0FFF1FBB1F65
:1016D000661F771F881F91505040A9F79E3F510504
:1016E00070F060CFAACF5F3FECF3983EDCF38695B5
:1016F00077956795B795F795E7959F5FC1F7FE2BAF
:10170000880F911D9695879597F9089597FB072E59
:1017100016F4009406D077FD08D037D007FC05D02A
:101720003EF4909581959F4F0895709561957F4FF8
:101730000895A1E21A2EAA1BBB1BFD010DC0AA1F12
:10174000BB1FEE1FFF1FA217B307E407F50720F02A
:10175000A21BB30BE40BF50B661F771F881F991FA5
:101760001A9469F760957095809590959B01AC01EE
:10177000BD01CF010895EE0FFF1F0590F491E02DFC
:1017800019940790F691E02D1994AA1BBB1B51E107
:1017900007C0AA1FBB1FA617B70710F0A61BB70BE1
:1017A000881F991F5A95A9F780959095BC01CD0186
:0617B0000895F894FFCF3C
:1017B60000000C0380001E0002002400220020000E
:1017C6001E001C001A001800160031003300040029
:1017D6003200300008000100000000CB073A092063
:0817E6000739072B07AA0700D1
:00000001FF
